:100000000C9463000C948B000C948B000C948B006C
:100010000C948B000C948B000C948B000C948B0034
:100020000C948B000C948B000C948B000C948B0024
:100030000C948B000C948B000C948B000C948B0014
:100040000C9401050C948B000C94C7040C948C0444
:100050000C948B000C948B000C948B000C948B00F4
:100060000C948B000C948B000000000024002700EF
:100070002A0000000000250028002B0000000000DE
:1000800023002600290004040404040404040202DA
:100090000202020203030303030301020408102007
:1000A0004080010204081020010204081020000012
:1000B0000007000201000003040600000000000029
:1000C00000004B056D0811241FBECFEFD8E0DEBF46
:1000D000CDBF11E0A0E0B1E0E6E9FAE102C0059091
:1000E0000D92A23AB107D9F722E0A2EAB1E001C02D
:1000F0001D92A936B207E1F710E0C2E6D0E004C0D5
:100100002197FE010E94290DC136D107C9F70E942F
:10011000D6050C9473080C94000008950F931F9358
:10012000CF93DF93FC01A685B7858D01005C1F4F3F
:10013000E8018881998101968F739927AD014E5B03
:100140005F4FEA012881398128173907D1F3E80187
:1001500028813981A20FB31F6C93A685B785A05C57
:10016000BF4F11969C938E93A689B7892C9181E0FD
:1001700090E0078C02C0880F991F0A94E2F7822B47
:100180008C9381E081A30488F589E02D80818064CF
:10019000808381E090E0DF91CF911F910F910895CE
:1001A000CF93DF936DE08CE392E00E948E00EC0130
:1001B0006AE08CE392E00E948E008C0F9D1FDF911D
:1001C000CF910895FC0181A1882329F0A489B589E4
:1001D0008C9186FFFBCF11A20895FC01A485B58503
:1001E000FD01E05CFF4F2081318132968081918159
:1001F0002817390779F080819181A80FB91F8C9158
:10020000208131812F5F3F4F2F733327318320832C
:1002100090E008958FEF9FEF08952FB7F8948091A5
:10022000B0019091B101A091B201B091B3012FBF83
:100230008093440290934502A0934602B0934702F4
:100240008CE392E00E94ED0097FF26C02FB7F89450
:100250008091B0019091B101A091B201B091B30130
:100260002FBF409144025091450260914602709127
:100270004702841B950BA60BB70B4091400250918F
:100280004102609142027091430284179507A607CC
:10029000B707B0F28FEF9FEF0895DC011C96ED9148
:1002A000FC911D97DF01A05CBF4F2D913C911197F0
:1002B00012968D919C9111972817390739F08D91DD
:1002C0009C91E80FF91F808190E008958FEF9FEFD8
:1002D0000895FC0124853585F901E05CFF4F80819C
:1002E0009181329620813181821B930B8F739927E4
:1002F00008958CE392E00C946901CF92DF92EF9223
:10030000FF920F931F93CF93DF936C01EB017B015F
:10031000E40EF51E00E010E0CE15DF0561F06991F6
:10032000D601ED91FC910190F081E02DC601099577
:10033000080F191FF1CFC801DF91CF911F910F91C5
:10034000FF90EF90DF90CF9008958E3008F08E50A0
:100350008770806480937C0080917A0080648093B1
:100360007A0080917A0086FDFCCF80917800209100
:10037000790090E0922B0895833081F028F4813049
:1003800099F08230A1F008958630A9F08730B9F055
:100390008430D1F4809180008F7D03C080918000F3
:1003A0008F7780938000089584B58F7702C084B5DD
:1003B0008F7D84BD08958091B0008F7703C08091B8
:1003C000B0008F7D8093B00008951F93CF93DF938B
:1003D000282F30E0F901E255FF4F8491F901E656EC
:1003E000FF4FD491F901EA57FF4FC491CC23C1F0DC
:1003F000162F81110E94BC01EC2FF0E0EE0FFF1FC1
:10040000EE58FF4FA591B4919FB7F894111104C015
:100410008C91D095D82302C0EC91DE2BDC939FBF4A
:10042000DF91CF911F910895CF93DF9390E0FC016E
:10043000E656FF4F2491FC01EA57FF4F8491882331
:1004400061F190E0880F991FFC01E859FF4FC591B9
:10045000D491FC01EE58FF4FA591B491611109C0F0
:100460009FB7F8948881209582238883EC912E236E
:100470000BC0623061F49FB7F8948881322F3095B9
:1004800083238883EC912E2B2C939FBF06C08FB7BC
:10049000F894E8812E2B28838FBFDF91CF910895A8
:1004A000CF92DF92EF92FF92CF9360E088E00E94BC
:1004B000E50182E090E00197F1F761E088E00E94B9
:1004C000E50182E290E00197F1F760E088E00E94A8
:1004D000E501E3EAF0E0C491EFE8F0E0849190E018
:1004E000880F991F84589F4F40E050E0BA01FC01EB
:1004F000A591B4912C912C23C21318C04F5F5F4F6C
:100500006F4F7F4F413422E452072FE0620771059D
:1005100071F743C04F5F5F4F6F4F7F4F413422E40D
:1005200052072FE06207710509F437C0FC01A5915D
:10053000B4912C912C23C213EDCF30E4C32E32E4BE
:10054000D32E3FE0E32EF12CC41AD50AE60AF70AAF
:1005500020E030E0A901FC01A591B4916C916C23DD
:10056000C6130AC0C216D306E406F506B1F02F5F23
:100570003F4F4F4F5F4FEFCFA5E1B0E00E94E70C38
:10058000DC01CB014096A11DB11D24E0B695A795D5
:10059000979587952A95D1F703C080E090E0DC011C
:1005A000BC01990F880B990B0E949B0B26E933E441
:1005B0004BE05DE30E94500C20E030E040E05FE360
:1005C0000E94500CCF91FF90EF90DF90CF90089554
:1005D000009769F0FC0101900020E9F73197AF0125
:1005E000481B590BBC018CE392E00C947D0180E028
:1005F00090E00895CF93DF930E94E802EC010E94FF
:10060000D0008C0F9D1FDF91CF9108958F929F9204
:10061000AF92BF92EF92FF920F931F93CF93DF930E
:10062000CDB7DEB7A1970FB6F894DEBF0FBECDBF32
:10063000162F042F19A2423008F40AE07E0121E2AD
:10064000E20EF11C802E912CA12CB12C612FA50162
:1006500094010E94C50C029F1019112481E0E81A30
:10066000F1081A3014F4105D01C0195CF701108311
:10067000122F732FCA01232B242B252B39F7C701E7
:100680000E94E802A1960FB6F894DEBF0FBECDBF60
:10069000DF91CF911F910F91FF90EF90BF90AF909E
:1006A0009F908F900895FC01809162029091630267
:1006B000892B21F421E0309749F413C080915E0228
:1006C00090915F02309731F421E0FC018081882312
:1006D00041F006C0BF010E946F0A21E0892B09F09A
:1006E00020E0822F08954F925F926F927F928F92B7
:1006F0009F92AF92BF92CF92DF92EF92FF92CF93F1
:10070000DF936B017C01B42E9B01AC010E94BD0CF8
:10071000882319F086E191E027C026013701E8948B
:1007200077F82FEF3FEF4FE75FE7C301B2010E9479
:10073000BD0C81110DC02FEF3FEF4FE75FE7C30105
:10074000B2010E94EC0A18161CF48AE191E00CC078
:100750002FEF3FEF4FE75FE4C701B6010E944B0C5C
:10076000181694F48EE191E0DF91CF91FF90EF9015
:10077000DF90CF90BF90AF909F908F907F906F90C1
:100780005F904F900C94E8022FEF3FEF4FE75FEC44
:10079000C701B6010E94EC0A87FDE4CF20E030E0FB
:1007A000A901C701B6010E94EC0A87FF0BC06DE2E8
:1007B0008CE392E00E948E00EC01F7FAF094F7F8D7
:1007C000F09402C0C0E0D0E0A12C60E070E080E0D6
:1007D0009FE3BA1441F020E030E040E251E40E948F
:1007E000F10AA394F6CFA70196010E94800A6B013B
:1007F0007C010E946A0B2B013C014AE00E94060327
:10080000C80FD91FBB2009F450C0C301B2010E9418
:10081000990B9B01AC01C701B6010E947F0A2B0115
:100820003C0182E291E00E94E802C80FD91FFB2C34
:1008300020E030E040E251E4C301B2010E94500CDC
:100840002B013C010E94630B4B01770FAA08BB08E8
:10085000B7FE15C06DE28CE392E00E948E006C0141
:1008600088279927DC0188199909AA09BB094AE058
:10087000BC01CD010E9406038C0D9D1D05C04AE000
:10088000C501B4010E940603C80FD91FC501B401F8
:100890000E949B0B9B01AC01C301B2010E947F0A25
:1008A0002B013C01FA94F110C3CFCE01DF91CF911F
:1008B000FF90EF90DF90CF90BF90AF909F908F9080
:1008C0007F906F905F904F9008950F931F93CF93F9
:1008D000DF93EC0188819981009729F02A813B817F
:1008E0002617370788F48B016F5F7F4F0E949709A7
:1008F000009761F0998388831B830A832C813D8153
:10090000232B11F4FC01108281E001C080E0DF9113
:10091000CF911F910F9108951F920F920FB60F92D2
:1009200011242F933F938F939F93EF93FF932091E5
:10093000F4013091F5018091F6019091F7012817AB
:10094000390731F48091C1008F7D8093C10014C0BC
:10095000E091F601F091F701EC54FE4F2081809177
:10096000F6019091F70101968F7399279093F70103
:100970008093F6012093C600FF91EF919F918F9194
:100980003F912F910F900FBE0F901F9018951F92BF
:100990000F920FB60F9211242F934F935F938F9363
:1009A0009F93EF93FF938091C00082FD1CC0209124
:1009B000C600809138029091390240913A025091DC
:1009C0003B0201968F7399274817590771F0E09100
:1009D0003802F0913902E850FE4F2083909339029B
:1009E0008093380202C08091C600FF91EF919F91E1
:1009F0008F915F914F912F910F900FBE0F901F908D
:100A000018951F920F920FB60F9211242F933F93B8
:100A10008F939F93AF93BF938091B0019091B10159
:100A2000A091B201B091B3013091A60123E0230F50
:100A30002D3720F40196A11DB11D05C026E8230F16
:100A40000296A11DB11D2093A6018093B001909341
:100A5000B101A093B201B093B3018091A201909132
:100A6000A301A091A401B091A5010196A11DB11D02
:100A70008093A2019093A301A093A401B093A50138
:100A8000BF91AF919F918F913F912F910F900FBE8A
:100A90000F901F90189510923F0210923E0288EE20
:100AA00093E0A0E0B0E08093400290934102A093D5
:100AB0004202B09343028AE091E090933D0280931A
:100AC0003C0288EF91E0909349028093480284EBC6
:100AD00091E090934B0280934A0285EC90E09093D2
:100AE0004D0280934C0284EC90E090934F028093EF
:100AF0004E0280EC90E0909351028093500281EC82
:100B000090E0909353028093520282EC90E0909395
:100B100055028093540286EC90E0909357028093A4
:100B2000560284E08093580283E08093590287E064
:100B300080935A0285E080935B0281E080935C029F
:100B400010925F0210925E02109261021092600297
:100B500010926302109262021092640260E070E0F0
:100B60008EE592E00E94650420915E0230915F0262
:100B7000811113C02115310519F0C9010E940E0918
:100B800010925F0210925E02109263021092620253
:100B90001092610210926002089510926302109206
:100BA000620260EA71E0C9010C94780ACF93DF9386
:100BB000CDB7DEB729970FB6F894DEBF0FBECDBF15
:100BC000789484B5826084BD84B5816084BD85B528
:100BD000826085BD85B5816085BD80916E00816034
:100BE00080936E00109281008091810082608093DA
:100BF00081008091810081608093810080918000DC
:100C00008160809380008091B10084608093B10006
:100C10008091B00081608093B00080917A00846000
:100C200080937A0080917A00826080937A0080912C
:100C30007A00816080937A0080917A008068809346
:100C40007A001092C10061E086E00E94140261E027
:100C500087E00E94140261E088E00E94140260E0D4
:100C60008FE00E94140260E089E00E94140260E0BC
:100C70008EE00E941402E0915002F091510281E056
:100C800090E09C0100905C0202C0220F331F0A9486
:100C9000E2F72083E0914C02F0914D021082E09146
:100CA0004E02F0914F022FEC208310925D02E091F2
:100CB0005202F091530240819C010090580202C000
:100CC000220F331F0A94E2F7242B2083E091520273
:100CD000F091530240819C010090590202C0220F02
:100CE000331F0A94E2F7242B2083E0915202F09103
:100CF000530240819C0100905A0202C0220F331F10
:100D00000A94E2F7242B2083E0915202F0915302DF
:100D1000208100905B0202C0880F991F0A94E2F7BD
:100D200080958223808361E086E00E94E501332480
:100D3000339495EB492E90E0592E21EA622E20E063
:100D4000722E3DE8A32E30E0B32E1A8219821C8247
:100D50001B821E821D821F8260E070E0CE01019620
:100D60000E94650429813A8181110DC02115310548
:100D700019F0C9010E940E091A8219821E821D8271
:100D80001C821B8207C01E821D8260EA71E0C901BD
:100D90000E94780A0E940D010D811E8197FD19C0E5
:100DA000888719860F5F1F4FB801CE0101960E94F8
:100DB0006504882379F329813A818D819E81BE0162
:100DC000685F7F4F820F931F0E94780A1E830D83F6
:100DD000E1CF80915E0290915F020097A1F0209197
:100DE0006002309161022017310758F069817A81E1
:100DF0000E94780A8D819E819093630280936202A3
:100E000016C00E940E0989819A8190935F02809397
:100E10005E028B819C8190936102809360028D8140
:100E20009E8190936302809362021A821982898163
:100E30009A810E940E09C0905E02D0905F02C11498
:100E4000D10409F445C000916202109163020115BA
:100E50001105F1F1760147018FEF881A980AF70121
:100E60008081082E000C990B0E945D0A892B11F0DD
:100E70007401F1CF015011090C0D1D1DF801808185
:100E8000082E000C990B0E945D0A892B31F00E157B
:100E90001F0518F001501109F1CF0F5F1F4FA80176
:100EA0004E195F095093630240936202CE14DF042F
:100EB00020F4B701C6010E94660AE0915E02F0913B
:100EC0005F028091620290916302E80FF91F108225
:100ED00084E291E00E9453038823D9F0F2018491C7
:100EE000F3011491F5010491002309F4F3C0811179
:100EF0000E94BC01E02FF0E0EE0FFF1FE458FF4F0F
:100F0000A591B4918C91182309F4E4C08EE291E08C
:100F1000AAC08EE291E00E945303882311F061E0A1
:100F200007C08BE391E00E945303882329F060E01F
:100F300087E00E94E5018CC082E491E00E945303A7
:100F4000882331F18FE00E94A501BC01990F880B25
:100F5000990B0E949B0B20E030E040EA50E40E9495
:100F6000500C20E030EC4FE754E40E94F10A20E0FE
:100F700030E048EC52E40E94500C6093AC01709356
:100F8000AD018093AE019093AF0187E491E025C05D
:100F90008DE491E00E945303882379F18EE00E9452
:100FA000A501BC01990F880B990B0E949B0B20E0B7
:100FB00030EC4FE754E40E94F10A20E030E048ECC6
:100FC00052E40E94500C6093AC017093AD01809389
:100FD000AE019093AF0183E591E00E94E802609139
:100FE000AC017091AD018091AE019091AF0142E0F2
:100FF0000E9473030E94D00038C08AE591E00E94ED
:101000005303882351F08091AB01882319F086E6C1
:1010100091E029C08EE691E026C087E791E00E942A
:101020005303882369F03092AB010E945002609311
:10103000A7017093A8018093A9019093AA0108C009
:1010400080E891E00E945303882329F01092AB01BD
:1010500084E391E008C08BE891E00E945303882369
:1010600021F080E991E00E94FA028091AB0188238F
:1010700071F10E9450022091A7013091A801409186
:10108000A9015091AA010E947F0A6B017C0120E016
:1010900030E0A9010E944B0C18165CF420E030E00F
:1010A00040E751E4C701B6010E944B0C18165CF0F2
:1010B0000EC020E030E040E751ECC701B6010E94CD
:1010C000EC0A87FF04C08AE991E00E94FA020E94BC
:1010D00079013BCE8BE391E0C6CF80915E02909187
:1010E0005F020C940E09F8940C943E0D0F931F931D
:1010F000CF93DF938230910510F482E090E0E0918D
:101100006702F091680220E030E0A0E0B0E03097A4
:1011100019F1408151810281138148175907C8F0A4
:101120008417950769F4109731F012960C93129773
:1011300013961C9327C0009367021093680222C085
:101140002115310519F04217530718F49A01BD0112
:10115000EF01DF01F801DBCF21153105F9F0281B84
:10116000390B2430310580F48A819B81611571052A
:1011700021F0FB019383828304C0909368028093E3
:101180006702FE01329644C0FE01E20FF31F819315
:10119000919322503109398328833AC02091650206
:1011A00030916602232B41F420910201309103011A
:1011B0003093660220936502209100013091010175
:1011C0002115310541F42DB73EB7409104015091EE
:1011D0000501241B350BE0916502F0916602E217D0
:1011E000F307A0F42E1B3F0B2817390778F0AC014A
:1011F0004E5F5F4F2417350748F04E0F5F1F509327
:101200006602409365028193919302C0E0E0F0E0B2
:10121000CF01DF91CF911F910F910895CF93DF936D
:10122000009709F481C0FC01329713821282A091C9
:101230006702B0916802109781F420813181820F9A
:10124000931F20916502309166022817390751F5E6
:10125000F0936602E093650267C0ED0120E030E0A4
:10126000CE17DF0740F44A815B819E01411551058D
:10127000F1F0EA01F5CFD383C28340815181840F1D
:10128000951FC817D90759F488819981840F951F34
:101290000296918380838A819B8193838283211527
:1012A000310529F4F0936802E09367023DC0E9013B
:1012B000FB83EA8349915991C40FD51FEC17FD07B1
:1012C00061F480819181840F951F0296E9019983D1
:1012D0008883828193819B838A83E0E0F0E0129689
:1012E0008D919C911397009719F0FD01DC01F7CFC8
:1012F0008D919C9111979D012E5F3F4F820F931FFF
:1013000020916502309166022817390769F43097F9
:1013100029F4109268021092670202C013821282AE
:10132000B0936602A0936502DF91CF910895A0E08B
:10133000B0E0EDE9F9E00C94F60CEC01009721F433
:10134000CB010E947608B4C0FC01E60FF71F9C0198
:1013500022503109E217F30708F4A8C0D9010D9112
:101360001C91119706171707B0F00530110508F406
:101370009BC0C80104978617970708F495C00250D0
:101380001109061B170B019311936D937C93CF01E9
:101390000E940E0989C05B01A01AB10A4C01800E9F
:1013A000911EA0916702B0916802612C712CE12C12
:1013B000F12C109709F446C08D919C911197A815B6
:1013C000B905B1F56C0142E0C40ED11CCA14DB04AE
:1013D00078F14C018A189B08640142E0C40ED11CCC
:1013E0001296BC9012971396AC91B5E0CB16D1042F
:1013F00040F0B282A38391828082D9016D937C9365
:1014000009C00E5F1F4F800F911FF90191838083E8
:10141000EB2DFA2FE114F10431F0D7011396FC9370
:10142000EE93129741C0F0936802E09367023CC0CC
:101430006816790608F43C017D0112960D90BC9166
:10144000A02DB7CF8091650290916602881699060B
:10145000E1F466167706C8F48091000190910101CD
:10146000009741F48DB79EB740910401509105015A
:10147000841B950BE817F907C8F4F0936602E09314
:101480006502F901718360830FC0CB010E94760869
:101490007C01009759F0A801BE010E94660ACE01A6
:1014A0000E940E09C70104C0CE0102C080E090E096
:1014B000CDB7DEB7EEE00C94120D91110C94C20C76
:1014C000803219F089508550C8F70895FB01DC017E
:1014D00002C001900D9241505040D8F70895FB0191
:1014E000DC018D91019080190110D9F3990B0895B9
:1014F000FB01DC0101900D920020E1F708955058A6
:10150000BB27AA270E94970A0C94110C0E94030C77
:1015100038F00E940A0C20F039F49F3F19F426F4A9
:101520000C94000C0EF4E095E7FB0C94FA0BE92FF9
:101530000E94220C58F3BA176207730784079507B5
:1015400020F079F4A6F50C94440C0EF4E0950B2EE3
:10155000BA2FA02D0B01B90190010C01CA01A00105
:101560001124FF27591B99F0593F50F4503E68F160
:101570001A16F040A22F232F342F4427585FF3CFA1
:10158000469537952795A795F0405395C9F77EF472
:101590001F16BA0B620B730B840BBAF09150A1F0BB
:1015A000FF0FBB1F661F771F881FC2F70EC0BA0F41
:1015B000621F731F841F48F4879577956795B795C9
:1015C000F7959E3F08F0B0CF9395880F08F09927C4
:1015D000EE0F9795879508950E94D60B08F481E049
:1015E00008950E94050B0C94110C0E940A0C58F0EF
:1015F0000E94030C40F029F45F3F29F00C94FA0B91
:1016000051110C94450C0C94000C0E94220C68F3B0
:101610009923B1F3552391F3951B550BBB27AA27AB
:1016200062177307840738F09F5F5F4F220F331FE5
:10163000441FAA1FA9F335D00E2E3AF0E0E832D0AD
:1016400091505040E695001CCAF72BD0FE2F29D0B0
:10165000660F771F881FBB1F261737074807AB0782
:10166000B0E809F0BB0B802DBF01FF2793585F4FF7
:101670003AF09E3F510578F00C94FA0B0C94450C0F
:101680005F3FE4F3983ED4F3869577956795B795D9
:10169000F7959F5FC9F7880F911D9695879597F9E4
:1016A0000895E1E0660F771F881FBB1F621773075D
:1016B0008407BA0720F0621B730B840BBA0BEE1F72
:1016C00088F7E09508950E946A0B6894B1110C9414
:1016D000450C08950E942A0C88F09F5798F0B92F66
:1016E0009927B751B0F0E1F0660F771F881F991F57
:1016F0001AF0BA95C9F714C0B13091F00E94440CA9
:10170000B1E008950C94440C672F782F8827B85FB8
:1017100039F0B93FCCF3869577956795B395D9F7AE
:101720003EF490958095709561957F4F8F4F9F4FB8
:101730000895E89409C097FB3EF4909580957095C4
:1017400061957F4F8F4F9F4F9923A9F0F92F96E90D
:10175000BB279395F695879577956795B795F11182
:10176000F8CFFAF4BB0F11F460FF1BC06F5F7F4F1F
:101770008F4F9F4F16C0882311F096E911C0772331
:1017800021F09EE8872F762F05C0662371F096E83A
:10179000862F70E060E02AF09A95660F771F881F09
:1017A000DAF7880F9695879597F90895990F0008AD
:1017B000550FAA0BE0E8FEEF16161706E807F90723
:1017C000C0F012161306E407F50798F0621B730BBE
:1017D000840B950B39F40A2661F0232B242B252B3F
:1017E00021F408950A2609F4A140A6958FEF811DE2
:1017F000811D089597F99F6780E870E060E0089583
:101800009FEF80EC089500240A9416161706180618
:101810000906089500240A941216130614060506F4
:101820000895092E0394000C11F4882352F0BB0F85
:1018300040F4BF2B11F460FF04C06F5F7F4F8F4FE8
:101840009F4F089557FD9058440F551F59F05F3F23
:1018500071F04795880F97FB991F61F09F3F79F0D2
:1018600087950895121613061406551FF2CF469554
:10187000F1DF08C0161617061806991FF1CF8695D6
:101880007105610508940895E894BB2766277727BA
:10189000CB0197F908950E94D60B08F48FEF0895B5
:1018A0000E94630C0C94110C0E94030C38F00E94EF
:1018B0000A0C20F0952311F00C94FA0B0C94000CF8
:1018C00011240C94450C0E94220C70F3959FC1F3D7
:1018D000950F50E0551F629FF001729FBB27F00DDE
:1018E000B11D639FAA27F00DB11DAA1F649F662733
:1018F000B00DA11D661F829F2227B00DA11D621F82
:10190000739FB00DA11D621F839FA00D611D221F3B
:10191000749F3327A00D611D231F849F600D211D1F
:10192000822F762F6A2F11249F5750409AF0F1F0A2
:1019300088234AF0EE0FFF1FBB1F661F771F881F0B
:1019400091505040A9F79E3F510580F00C94FA0B3E
:101950000C94450C5F3FE4F3983ED4F3869577955D
:101960006795B795F795E7959F5FC1F7FE2B880FB1
:10197000911D9695879597F908950E94D60B880B2F
:10198000990B0895992788270895A1E21A2EAA1B7A
:10199000BB1BFD010DC0AA1FBB1FEE1FFF1FA2171F
:1019A000B307E407F50720F0A21BB30BE40BF50B1C
:1019B000661F771F881F991F1A9469F760957095A5
:1019C000809590959B01AC01BD01CF0108950E94C7
:1019D0002F0DA59F900DB49F900DA49F800D911D7C
:1019E000112408952F923F924F925F926F927F92AF
:1019F0008F929F92AF92BF92CF92DF92EF92FF921F
:101A00000F931F93CF93DF93CDB7DEB7CA1BDB0BCA
:101A10000FB6F894DEBF0FBECDBF09942A8839886F
:101A200048885F846E847D848C849B84AA84B98476
:101A3000C884DF80EE80FD800C811B81AA81B98182
:101A4000CE0FD11D0FB6F894DEBF0FBECDBFED0196
:101A50000895EE0FFF1F0590F491E02D0994A29FC9
:101A6000B001B39FC001A39F700D811D1124911D72
:101A7000B29F700D811D1124911D089510E0C2E6E2
:101A8000D0E004C0FE010E94290D2196C336D10783
:061A9000C9F7F894FFCF36
:101A9600000069022000000000008E007D0169013F
:101AA600ED004D01E2006E616E00696E66006F76B4
:101AB60066002E004C6564537461747573004C6542
:101AC600644F6E00417965417965004C65644F66E7
:101AD600660054656D700054656D703A004E6F690E
:101AE6007365004E6F6973653A00416C61726D53A0
:101AF600746174757300416C61726D4F6E00416C58
:101B060061726D4F666600416C61726D536574005B
:101B1600416C61726D5265736574004563686F0050
:101B26004578637573654D653F00416C61726D2143
:021B36000000AD
:00000001FF
